:1000000000308A00752800008E30F7002E08F800B6
:100010002D08F900FA01F808031D18287908F800DE
:10002000F9010830F702F808031D1828F701202805
:100030000310F81B1F28F90DF80DF7031828F81303
:1000400008002E08B5003208B506B51F2C2803118C
:100050000310AE1B03145F282E08B5003108B6004C
:100060002D08B60203193A28B51F5F280308013A84
:1000700083005F283208B6002E08B602031946280E
:10008000B51F5F280308013A83005F283308B600D4
:100090002F08B60203195228B51F5F280308013A3A
:1000A00083005F283408B6003008B60203195E28C2
:1000B000B51F5F280308013A83005F28031008007A
:1000C0002D30840083130008031974280130F800D0
:1000D000F701F70B6928F80B68284A30F700F70B8F
:1000E0006F287228800B66280800FF30AC0083164A
:1000F00003170908C039890003131F129F1200302B
:1001000003178800831287018801890183131F3038
:100110008305FF30831603138500003087008312A8
:10012000AC00AC0083168701831287011F139F1751
:1001300083169F1383121F14831603170908C039EF
:100140001F38890003131F129F12FF300317880006
:100150000030F8000538831203139200FF30831635
:1001600092008312AC102C0883168700831287102C
:100170000C309D0021309B000030F8001F08C3396F
:1001800078049F009F149F18C328A1011E08A00097
:100190002108AE002008AD0004207A08A7007908E5
:1001A000A6007808A5007708A4000630F700F70B32
:1001B000D72800000430F8001F08C33978049F00D6
:1001C0009F149F18E128A3011E08A2002308AE0077
:1001D0002208AD0004207A08AB007908AA0078084C
:1001E000A9007708A8000630F700F70BF5280000F3
:1001F0002B08B0002A08AF002908AE002808AD007F
:100200002708B4002608B3002508B2002408B1006E
:100210002120031C1A292C112C0883168700831215
:100220000715AC112C088316870083128711143030
:10023000AD0060202708B0002608AF002508AE00FA
:100240002408AD002B08B4002A08B3002908B20026
:100250002808B1002120031C3D29AC112C0883166D
:100260008700831287152C112C08831687008312B0
:1002700007111430AD00602049292C112C08831679
:10028000870083120711AC112C0883168700831294
:060290008711BC28630089
:04400E00F12CFF3F53
:00000001FF
;PIC16F887
;CRC=2929  CREATED="23-Ara-22 14:08"
