:1000000000308A003E280000F701F80124080310A0
:100010002518F707F70CF80CA518F707F70CF80CDC
:100020002519F707F70CF80CA519F707F70CF80CCA
:10003000251AF707F70CF80CA51AF707F70CF80CB8
:10004000251BF707F70CF80CA51BF707F70CF80CA6
:100050000800253084008313000803193D2801306F
:10006000F800F701F70B3228F80B31284A30F70077
:10007000F70B38283B28800B2F280800FF30A00002
:10008000831603170908C039890003131F129F1232
:1000900000300317880083128701880189018313C8
:1000A0001F30830501300313A100A301A20100301A
:1000B000831687008312A000A010200883168700F3
:1000C000831287100C309D009B0122080139A40087
:1000D000A501A408031D7B28A508031D7B2820116A
:1000E00020088316870083120715A01120088316A5
:1000F00087008312871122080139A400A501240B6F
:100100009028A508031D9028A011200883168700B9
:100110008312871520112008831687008312071188
:10012000831605148312051CA7280130A107210896
:10013000333C03189D283330A1002108A40005306A
:10014000A500042078089B003230A50029208316E2
:1001500085148312851CBD280130A102A108031D4E
:10016000B3280130A1002108A4000530A500042017
:1001700078089B003230A5002920831605158312CC
:10018000051DCC28A20A0319A30A0230A400FA30E4
:0C019000A5002920A40BC72865286300E7
:04400E00F12CFF3F53
:00000001FF
;PIC16F887
;CRC=7C18  CREATED="10-Ara-22 23:28"
