:1000000005308A00202D00000A108A100A1182078C
:1000100028340C34013406340C000C005036E53022
:10002000F332A0326E3A6539A03020192D32E9330F
:10003000693A2037F536E23272000C000C00503677
:10004000E530F332A0326E3A6539A03020192D32F6
:10005000E933693A2037F536E23272000C00383065
:10006000840083130008031943280130F800F701C6
:10007000F70B3828F80B37284A30F700F70B3E28E3
:100080004128800B352808003F0EF039F7000F306B
:10009000060577048600000006144E2806100800A6
:1000A0000608F700060E0F39F80008008316061040
:1000B00086100611831286100F3083160605F0385D
:1000C00086008312061500000614000050207808F0
:1000D000BF00061000000614000050207808BE0083
:1000E00006100F3083160605860083123F0EF700B8
:1000F000F030F70577083E04F8007808BE00BE1B14
:100100005C283C1C86103C18861400000611000078
:1001100006103D0EBE000F30BE053E08BF00442055
:100120003D080F39BE00BF00442008000F30831681
:100130000605860006108610061183128610061129
:1001400006100F30B8002F200130AB002B08033C05
:10015000031CB2280330BF0044200530B8002F2014
:10016000AB0AA6280230BF0044200530B8002F207B
:10017000AB012B08033C031CC6282B080420AC0051
:10018000BC012C08BD005620AB0AB9288A110A12FE
:10019000472D390BCC28CF284030BA00D028BA01DF
:1001A00001303802BA073A088038BB00BC013B086E
:1001B000BD00562008003708073A0319E9280B3A12
:1001C0000319EE28063A0319F628023A0319FC2807
:1001D00001290130B800B900C9200629BC0101304D
:1001E000BD0056200230B8002F2006290130B8008B
:1001F0000230B900C9200629BC011030BD005620CC
:1002000006290130BC003708BD0056200800103018
:10021000AF00F701FA01AC0CAB0C031C15292D083B
:10022000F7070318FA0A2E08FA07FA0CF70CF90C6C
:10023000F80CAF0B0B290800831821293F308400EC
:100240008313F701F801F901FA01BF01C001C101EF
:10025000C2013E083D043C043B0403195F292030E1
:10026000C3000310B70DB80DB90DBA0DBF0DC00D09
:10027000C10DC20D3E084202031D48293D0841023E
:10028000031D48293C084002031D48293B083F0242
:10029000031C59293B08BF023C08031C3C0FC00249
:1002A0003D08031C3D0FC1023E08031C3E0FC20265
:1002B0000314F70DF80DF90DFA0DC30B31293F08A2
:1002C0008000840A40088000840A41088000840A73
:1002D0004208800008000B08AB008B13831603173D
:1002E0008C170C140000000083120C087F390319CE
:1002F000B2290313AC0003170D080313AD00031755
:100300000F080313AE002C08B700DB202D080317DD
:100310008D0003132E0803178F0083168C170C14FF
:100320000000000083120C0D0E0D7F390319B22955
:100330000313AC0003170D080313AD0003170F08D8
:100340000313AE002C08B700DB202D0803178D0027
:1003500003132E0803178F008D0A03198F0A031346
:100360006E2903170313AB1B8B1708002A122A08E8
:1003700083168700831207162A142A08831687001B
:100380008312071CDE292A142A0883168700831289
:100390000718C3293730B700DB200730A400230833
:1003A000AC002208AB00AE010A30AD0007212408E2
:1003B0007807A2007908A3000318A30AAA142A0840
:1003C000831687008312871C002AAA142A08831622
:1003D000870083128718E5293830B700DB20083002
:1003E000A4002308AC002208AB00AE010A30AD0027
:1003F000072124087807A2007908A3000318A30A9C
:100400002A152A08831687008312071D222A2A1517
:100410002A088316870083120719072A3930B70084
:10042000DB200930A4002308AC002208AB00AE0199
:100430000A30AD00072124087807A2007908A3003C
:100440000318A30AAA152A08831687008312871D9A
:10045000462AAA152A088316870083128719292A93
:100460000C30B700DB202030B700DB204130B70074
:10047000DB200C30B700DB20A101A001A301A20109
:10048000A401A501A901A801A701A6012A122A0811
:100490008316870083120712AA122A088316870080
:1004A000831287162A142A08831687008312071CD2
:1004B000742A2A142A088316870083120718592AD7
:1004C0003430B700DB200430A4002308AC0022083D
:1004D000AB00AE010A30AD00072124087807A20066
:1004E0007908A3000318A30AAA142A088316870010
:1004F0008312871C962AAA142A088316870083125F
:1005000087187B2A3530B700DB200530A40023088C
:10051000AC002208AB00AE010A30AD000721240870
:100520007807A2007908A3000318A30A2A152A084D
:10053000831687008312071DB82A2A152A088316F6
:100540008700831207199D2A3630B700DB2006305A
:10055000A4002308AC002208AB00AE010A30AD00B5
:10056000072124087807A2007908A3000318A30A2A
:10057000AA152A08831687008312871DDC2AAA156C
:100580002A088316870083128719BF2A0C30B70008
:10059000DB202030B700DB204230B700DB200C30FE
:1005A000B700DB20A101A001A301A201A401A501C4
:1005B000A901A801A701A601AA122A08831687008B
:1005C000831287122A132A088316870083120717BB
:1005D0002A142A08831687008312071C0A2B2A1460
:1005E0002A088316870083120718EF2A3130B700D4
:1005F000DB200130A4002308AC002208AB00AE01D0
:100600000A30AD00072124087807A2007908A3006A
:100610000318A30AAA142A08831687008312871CCA
:100620002C2BAA142A088316870083128718112BF3
:100630003230B700DB200230A4002308AC002208CF
:10064000AB00AE010A30AD00072124087807A200F4
:100650007908A3000318A30A2A152A08831687001D
:100660008312071D4E2B2A152A0883168700831232
:100670000719332B3330B700DB200330A4002308E5
:10068000AC002208AB00AE010A30AD0007212408FF
:100690007807A2007908A3000318A30AAA152A085C
:1006A000831687008312871D722BAA152A088316CA
:1006B000870083128719552B0C30B700DB202030C0
:1006C000B700DB204330B700DB200C30B700DB2065
:1006D000A101A001A301A201A401A501A901A801F2
:1006E000A701A6012A132A0883168700831207137D
:1006F000AA132A0883168700831287172A142A0848
:10070000831687008312071C972B2A142A08831646
:10071000870083120718852B2A30B700DB202308B7
:10072000A1002208A0000130A500A301A201AA1483
:100730002A08831687008312871CB82BAA142A085C
:1007400083168700831287189E2B3030B700DB207A
:10075000A4012308AC002208AB00AE010A30AD00B2
:10076000072124087807A2007908A3000318A30A28
:100770002A152A08831687008312071DF12C2A15D3
:100780002A088316870083120719BF2BA108031DAF
:10079000CD2B2008093C0318C52CA108031DC52C2E
:1007A0002008633C031CC52CA308031DDB2B220877
:1007B000093C0318982CA308031D982C2208633CBD
:1007C000031C982C6430B8002F202330B700DB20A6
:1007D0002508013A031D882C22082007A6002108BD
:1007E000A70023080318230FA707A801A901413078
:1007F00084002908AE002808AD002708AC002608B0
:10080000AB000408AF00AE1F122CAF03AF16AB094C
:10081000AC09AD09AE09AB0A0319AC0A0319AD0A5C
:100820000319AE0A3B30B6009A30B500CA30B400A6
:10083000B3010A30B10083142B30840083132E08D7
:10084000BA002D08B9002C08B8002B08B7003608EC
:10085000BE003508BD003408BC003308BB001C21B5
:100860007808F708031D472C3108013A0319472C73
:100870002F080319492C0F3931020319412C031891
:10088000652CAF1B652C2F1B492C2030612C203090
:10089000AF05AF1E542CAF127708AF002D30B70054
:1008A000DB202F08F700AF013030AF1E612CAF12F4
:1008B0007708AF002D30B700DB202F08F700AF011D
:1008C0003030F7077708B700DB2083103608BA000E
:1008D0003508B9003408B8003308B700BE01BD01BF
:1008E000BC010A30BB001C217A08B6007908B500AB
:1008F0007808B4007708B300B10B1B2CA101A0014C
:10090000A301A201A401A501A901A801A701A601B3
:10091000A5010C30AB00FA30B8002F20AB0B8B2CAC
:100920000C3003178D0000308F0003136B21C42C93
:100930006430B8002F200D3003178D0000308F0079
:1009400003136B212330B700DB200E3003178D001B
:1009500000308F0003136B210430AB00FA30B80075
:100960002F20AB0BAE2C1D3003178D0000308F00F5
:1009700003136B21A101A001A301A201A401A50100
:10098000A901A801A701A601F12C6430B8002F200D
:100990001E3003178D0000308F0003136B212330AE
:1009A000B700DB201F3003178D0000308F000313CA
:1009B0006B210430AB00FA30B8002F20AB0BDB2CDE
:1009C0002E3003178D0000308F0003136B21A1011F
:1009D000A001A301A201A401A501A901A801A701E9
:1009E000A601AA152A08831687008312871D152DD4
:1009F000AA152A088316870083128719F82C0C3051
:100A0000B700DB202030B700DB204430B700DB200C
:100A10000C30B700DB20A101A001A301A201A401B9
:100A2000A501A901A801A701A601AA132A088316F6
:100A30008700831287132508F8008A110A12482DAF
:100A4000A101A001A301A201A401A501A901A8017E
:100A5000A701A601FF30AA00831603170908C039B1
:100A6000890003131F129F1200300317880083129E
:100A700087018801890183131F30830500308316A5
:100A800003138600F03087008312AA009628B62947
:040A9000472D63008B
:04400E00F12CFF3F53
:00000001FF
;PIC16F887
;CRC=3B2D  CREATED="05-Ara-22 22:25"
