:1000000003308A00722B00000A108A100A1182073E
:1000100028340C34013406344937E337ED34EE33F9
:100020002022613A611DA012731020008C255F38D8
:10003000BD12EC3A00004937E337ED34EE332022AD
:10004000613A611DA012731020008C25DF34BD12AF
:10005000EC3A00014937E337ED34EE332022613AC0
:10006000611DA012731020008C255F32BD12EC3A86
:100070000000463084008313000803194D28013026
:10008000F800F701F70B4228F80B41284A30F70037
:10009000F70B48284B28800B3F2808004D0EF039FD
:1000A000F7000F3006057704860000000614582874
:1000B000061008000608F700060E0F39F8000800C1
:1000C0008316061086100611831286100F308316D1
:1000D0000605F0388600831206150000061400009D
:1000E0005A207808CD0006100000061400005A209F
:1000F0007808CC0006100F308316060586008312A0
:100100004D0EF700F030F70577084C04F80078083A
:10011000CC00CC1B66284A1C86104A1886140000A6
:100120000611000006104B0ECC000F30CC054C0819
:10013000CD004E204B080F39CC00CD004E200800DA
:100140000F308316060586000610861006118312EE
:100150008610061106100F30C60039200130BC0091
:100160003C08033C031CBC280330CD004E20053066
:10017000C6003920BC0AB0280230CD004E20053020
:10018000C6003920BC013C08033C031CD0283C08B5
:100190000420BD00CA013D08CB006020BC0AC32872
:1001A0008A110A12942B0B08BD008B1383160317B8
:1001B0008C170C14000000000318062983120C0889
:1001C0007F390313BE0003170D080313BF00031785
:1001D0000F080313C0003E080C1EEC2899003F08CE
:1001E00003178D000313400803178F0083168C1725
:1001F0000C140000000083120313BC0B0029032918
:1002000083160317062926298316031783120C0D5C
:100210000E0D7F390313BE0003170D080313BF0033
:1002200003170F080313C0003E080C1E1529990080
:100230003F0803178D000313400803178F008D0A32
:1002400003198F0A03100313BC0BD628BD1B8B1791
:100250000800800803193F29BD010408BC003D10B7
:10026000831B3D1400080C1E332999003C088400B0
:1002700083133D188317840A0319850A2929080066
:10028000C201C0010A30C100BF01BE013C083D04EB
:10029000031D4E290030F800F900732A4208C20AF3
:1002A0003C07840083133D1883170008C3004308EC
:1002B0002D3C031D67290130C0004208C20A3C07DB
:1002C000840083133D1883170008C3007429430872
:1002D0002B3C031D74294208C20A3C078400831387
:1002E0003D1883170008C30043082F3C0318642AF5
:1002F0004308393C031C642A4308303C031DA029F1
:1003000042083C07840083133D1883170008783C9B
:100310000319942942083C07840083133D1883176E
:100320000008583C031DA0291030C100C20A420831
:10033000C20A3C07840083133D1883170008C300DA
:1003400041080A3C031DF32943082F3C0318F229F6
:100350004308393C031CF229C5010A30C4003F0898
:10036000C7003E08C600450847068039C900C51FBA
:10037000BE29C409C509C40A0319C50AC71FC5296E
:10038000C609C709C60A0319C70A1030C800F70111
:10039000FA01C50CC40C031CD3294608F70703183F
:1003A000FA0A4708FA07FA0CF70CF90CF80CC80B14
:1003B000C929C91FE029F809F909F80A0319F90A36
:1003C000303043027807BE007908BF000318BF0A27
:1003D0004208C20A3C07840083133D1883170008B3
:1003E000C300A429642A4108103C031D642A430861
:1003F000603C0318022A43087A3C031C022A430883
:10040000DF39032A4308C30043082F3C03180C2A92
:100410004308393C0318142A4308403C0318642A53
:100420004308463C031C642A43082F3C0318352A22
:100430004308393C031C352A3E0DC4003F0DC5005E
:10044000C40DC50DC40DC50DC40DC50DF030C405DA
:10045000303043024407F8004508FA000318FA0A4E
:100460007808BE007A08BF004E2A3E0DC4003F0D3A
:10047000C500C40DC50DC40DC50DC40DC50DF030AE
:10048000C405413043020A3E4407F8004508FA001B
:100490000318FA0A7808BE007A08BF004208C20AA8
:1004A0003C07840083133D1883170008C300603C99
:1004B0000318612A43087A3C031C612A4308DF3988
:1004C000622A4308C300042A41080A3C031D6F2A1C
:1004D000400B6F2ABE09BF09BE0A0319BF0A3E08B6
:1004E000F8003F08F9000800470B772A7A2A4030C5
:1004F000C8007B2AC80101304602C8074808803876
:10050000C900CA014908CB00602008004508073A25
:100510000319942A0B3A0319992A063A0319A12AB6
:10052000023A0319A72AAC2A0130C600C700742278
:10053000B12ACA010130CB0060200230C600392048
:10054000B12A0130C6000230C7007422B12ACA01A4
:100550001030CB006020B12A0130CA004508CB0022
:10056000602008000B08BD008B13831603178C173F
:100570000C14000000000318E42A83120C087F39D1
:100580000313BE0003170D080313BF0003170F0862
:100590000313C0003E08C50086223F0803178D00E4
:1005A0000313400803178F0083168C170C140000E8
:1005B000000083120313BC0BDE2AE12A8316031703
:1005C000E42A032B8316031783120C0D0E0D7F39BB
:1005D0000313BE0003170D080313BF0003170F0812
:1005E0000313C0003E08C50086223F0803178D0094
:1005F0000313400803178F008D0A03198F0A031095
:100600000313BC0BB52ABD1B8B170800C4010408DB
:10061000C3004410831B44143D0EF038BF00BF07D5
:10062000E23EC000323EC2003D080F39C007C0079D
:10063000C207E93EC100C107C1073C0E0F39C1071F
:10064000C207C10DC20DC209C20D3C080F39C20755
:10065000BF0D0730BE000A30C207C103031C2C2B9C
:10066000C107C003031C302BC007BF03031C342B7E
:10067000BF07BE03031C382B3E30840083130730B2
:10068000430543138407423004020319431700084B
:10069000F700031D532B431B532B431A652BC31920
:1006A000532B2030562BC31543123030F707BD01B2
:1006B0000408BC003D10831B3D147708C50086224A
:1006C0003C08840083133D188317840A431F432B7F
:1006D000080078080319712B77088000840AF80B4A
:1006E0006C2B080083160317871119300313990028
:1006F000A6309800903083129800A6018316031745
:100700000908C039890003131F129F120030031714
:100710008800831287018801890183131F308305B4
:100720000313A001A101A0280A30C60039208C1EA5
:10073000782C8C1E992B1A08BB003B08503C031DDB
:10074000DC2BA6010C3003178D0000308F00031046
:100750000F300313BC00D3202730840083132921DA
:1007600020300C1EB12B990020300C1EB52B9900A7
:10077000BD012730BC0040217908B4007808B300DF
:100780003408B6003308B500163003178D0000306A
:100790008F00031005300313BC00B2221030840018
:1007A0003408BD003308BC000623273084008313BF
:1007B000F7010830F80069233B08493C031D262C4B
:1007C000A6012808AF002908B0001B3003178D00D0
:1007D00000308F0003100F300313BC00D3202F30E4
:1007E00084008313292120300C1EF42B9900203023
:1007F0000C1EF82B9900BD012F30BC004021790858
:10080000B4007808B3003408B8003308B7002530C6
:1008100003178D0000308F00031005300313BC0058
:10082000B222103084003808BD003708BC0006230F
:100830002F3084008313F7010230F800692327303A
:1008400084008313F7010830F80069233B08443C17
:10085000031D712CA6012808B1002908B2002A3016
:1008600003178D0000308F0003100F300313BC00FE
:10087000D320313084008313292120300C1E3E2CDC
:10088000990020300C1E422C9900BD013130BC0073
:1008900040217908B4007808B3003408BA0033085E
:1008A000B900343003178D0000308F00031005307D
:1008B0000313BC00B222103084003A08BD0039088E
:1008C000BC000623313084008313F7010230F800A6
:1008D0006923273084008313F7010830F800692367
:1008E000782C27302607840083133B088000A60A53
:0408F000972B6300DF
:04400E00F12CFF3F53
:00000001FF
;PIC16F887
;CRC=0F2D  CREATED="12-Ara-22 00:43"
