:1000000000308A0019280000223084008313000881
:10001000031918280130F800F701F70B0D28F80B29
:100020000C284A30F700F70B13281628800B0A28F3
:100030000800831603178711193003139900A6309F
:100040009800903083129800831603170908C0396E
:10005000890003131F129F120030031788008312B8
:1000600087018801890183131F3083053130031311
:100070000C1E382899000230A100FA30A20004209A
:10008000A10B3D2833300C1E432899000230A100FB
:10009000FA30A2000420A10B482850300C1E4E2834
:1000A00099000230A100FA30A2000420A10B5328CD
:1000B00036300C1E592899000230A100FA30A200F7
:1000C0000420A10B5E2839300C1E642899000230F0
:1000D000A100FA30A2000420A10B692849300C1EAF
:1000E0006F2899000230A100FA30A2000420A10B71
:1000F000742836300C1E7A2899000230A100FA309C
:10010000A2000420A10B7F2833300C1E8528990003
:100110000230A100FA30A2000420A10B8A2844304A
:100120000C1E902899001430A100FA30A20004207F
:0A013000A10B952803173628630081
:04400E00F12CFF3F53
:00000001FF
;PIC16F887
;CRC=F3B8  CREATED="12-Ara-22 00:38"
