:1000000002308A000A2A0000FF00030E8301A100CB
:100010000A08A0008A010408A2007708A300780853
:10002000A4007908A5007A08A600831383128B1E0A
:100030001B280B192C28220884002308F700240809
:10004000F8002508F9002608FA0020088A00210E89
:100050008300FF0E7F0E09008A110A1237280A104A
:100060008A100A11820728340C34013406348E01B8
:100070008F013C308E00AB0A2B08283C031D6B28F7
:100080000030F8001F08C33978049F000230F700E1
:10009000F70B48284B2800009F149F184D28831603
:1000A0001E088312A7001E08A8000430F8001F08CD
:1000B000C33978049F000230F700F70B5D286028F1
:1000C00000009F149F18622883161E088312A9003F
:1000D0001E08AA00AB010B118A110A121B280C2B57
:1000E0006136F532B11E253675000A2B6136F532C0
:1000F000B21E2536750036308400831300080319BC
:100100008F280130F800F701F70B8428F80B8328BB
:100110004A30F700F70B8A288D28800B81280800C9
:100120003D0EF039F7000F30060577048600000019
:1001300006149A28061008000608F700060E0F3964
:10014000F800080083160610861006118312861028
:100150000F3083160605F03886008312061500005E
:10016000061400009C207808BD000610000006144C
:1001700000009C207808BC0006100F30831606058E
:10018000860083123D0EF700F030F70577083C0437
:10019000F8007808BC00BC1BA8283A1C86103A1846
:1001A000861400000611000006103B0EBC000F3044
:1001B000BC053C08BD0090203B080F39BC00BD00C9
:1001C000902008000F308316060586000610861062
:1001D000061183128610061106100F30B6007B2020
:1001E0000130AC002C08033C031CFE280330BD008A
:1001F00090200530B6007B20AC0AF2280230BD000A
:1002000090200530B6007B20AC012C08033C031C79
:1002100012292C082F20AD00BA012D08BB00A22006
:10022000AC0A05298A110A121F2A370B18291B2923
:100230004030B8001C29B80101303602B807380830
:100240008038B900BA013908BB00A220080035087F
:10025000073A031935290B3A03193A29063A0319C3
:100260004229023A031948294D290130B600B70046
:1002700015215229BA010130BB00A2200230B6007C
:100280007B2052290130B6000230B70015215229D7
:10029000BA011030BB00A22052290130BA00350843
:1002A000BB00A22008000B08AD008B1383160317B8
:1002B0008C170C14000000000318852983120C0809
:1002C0007F390313AE0003170D080313AF000317A4
:1002D0000F080313B0002E08B50027212F080317BD
:1002E0008D000313300803178F0083168C170C142E
:1002F0000000000083120313AC0B7F2982298316B0
:1003000003178529A4298316031783120C0D0E0DDC
:100310007F390313AE0003170D080313AF00031753
:100320000F080313B0002E08B50027212F0803176C
:100330008D000313300803178F008D0A03198F0AED
:1003400003100313AC0B5629AD1B8B170800B40127
:100350000408B3003410831B34142D0EF038AF00A2
:10036000AF07E23EB000323EB2002D080F39B007B1
:10037000B007B207E93EB100B107B1072C0E0F3943
:10038000B107B207B10DB20DB209B20D2C080F3989
:10039000B207AF0D0730AE000A30B207B103031C3D
:1003A000CD29B107B003031CD129B007AF03031C4B
:1003B000D529AF07AE03031CD9292E30840083133F
:1003C000073033053313840732300402031933171F
:1003D0000008F700031DF429331BF429331A062AF9
:1003E000B319F4292030F729B31533123030F70749
:1003F000AD010408AC002D10831B2D147708B50047
:1004000027212C08840083132D188317840A331F97
:10041000E4290800AB01831603170908C0398900D5
:1004200003131F129F1200300317880083128701E5
:100430008801890183131F3083050313E2280A30E2
:10044000B6007B20831603170908C03989000313FF
:100450001F129F120B3003178800831203131F1300
:100460009F1783169F1783121F140030F8001F0870
:10047000C33978049F000230F700F70B3D2A402A69
:1004800000009F149F18422A83161E088312A7009B
:100490001E08A8000430F8001F08C33978049F0024
:1004A0000230F700F70B522A552A00009F149F18BC
:1004B000572A83161E088312A9001E08AA006F304F
:1004C00003178D0000308F00031008300313AC00B9
:1004D0005321103084002808AD002708AC00A72164
:1004E000753003178D0000308F00031008300313A0
:1004F000AC005321103084002A08AD002908AC005C
:10050000A721C830B6007B2083160108C039073800
:1005100081003C30831281008B16C0308B045F2A2F
:02052000630076
:04400E00F12CFF3F53
:00000001FF
;PIC16F887
;CRC=C2E1  CREATED="11-Ara-22 23:43"
